{
  "abi": [
    {
      "inputs": [
        {
          "internalType": "address",
          "name": "fly",
          "type": "address"
        }
      ],
      "stateMutability": "nonpayable",
      "type": "constructor"
    },
    {
      "inputs": [],
      "name": "NotEligableToWrite",
      "type": "error"
    },
    {
      "inputs": [],
      "name": "Unauthorized",
      "type": "error"
    },
    {
      "anonymous": false,
      "inputs": [
        {
          "indexed": false,
          "internalType": "address",
          "name": "king",
          "type": "address"
        },
        {
          "indexed": false,
          "internalType": "string",
          "name": "message",
          "type": "string"
        }
      ],
      "name": "KingHasWrittenAMessage",
      "type": "event"
    },
    {
      "anonymous": false,
      "inputs": [
        {
          "indexed": false,
          "internalType": "uint256",
          "name": "cycle",
          "type": "uint256"
        },
        {
          "components": [
            {
              "internalType": "address",
              "name": "adr",
              "type": "address"
            },
            {
              "internalType": "uint256",
              "name": "flies",
              "type": "uint256"
            },
            {
              "internalType": "string",
              "name": "message",
              "type": "string"
            },
            {
              "internalType": "bool",
              "name": "messageSent",
              "type": "bool"
            }
          ],
          "indexed": false,
          "internalType": "struct KOTH.Winner",
          "name": "winner",
          "type": "tuple"
        }
      ],
      "name": "NewKing",
      "type": "event"
    },
    {
      "anonymous": false,
      "inputs": [
        {
          "indexed": true,
          "internalType": "address",
          "name": "owner",
          "type": "address"
        }
      ],
      "name": "UpdatedOwner",
      "type": "event"
    },
    {
      "anonymous": false,
      "inputs": [
        {
          "components": [
            {
              "internalType": "address",
              "name": "adr",
              "type": "address"
            },
            {
              "internalType": "uint256",
              "name": "flies",
              "type": "uint256"
            },
            {
              "internalType": "string",
              "name": "message",
              "type": "string"
            },
            {
              "internalType": "bool",
              "name": "messageSent",
              "type": "bool"
            }
          ],
          "indexed": false,
          "internalType": "struct KOTH.Winner",
          "name": "winner",
          "type": "tuple"
        }
      ],
      "name": "WinnerChanged",
      "type": "event"
    },
    {
      "anonymous": false,
      "inputs": [
        {
          "indexed": false,
          "internalType": "address",
          "name": "winner",
          "type": "address"
        },
        {
          "indexed": false,
          "internalType": "string",
          "name": "message",
          "type": "string"
        }
      ],
      "name": "WinnerHasWrittenAMessage",
      "type": "event"
    },
    {
      "inputs": [],
      "name": "FLY",
      "outputs": [
        {
          "internalType": "address",
          "name": "",
          "type": "address"
        }
      ],
      "stateMutability": "view",
      "type": "function"
    },
    {
      "inputs": [],
      "name": "currentWinner",
      "outputs": [
        {
          "internalType": "address",
          "name": "adr",
          "type": "address"
        },
        {
          "internalType": "uint256",
          "name": "flies",
          "type": "uint256"
        },
        {
          "internalType": "string",
          "name": "message",
          "type": "string"
        },
        {
          "internalType": "bool",
          "name": "messageSent",
          "type": "bool"
        }
      ],
      "stateMutability": "view",
      "type": "function"
    },
    {
      "inputs": [],
      "name": "cycle",
      "outputs": [
        {
          "internalType": "uint256",
          "name": "",
          "type": "uint256"
        }
      ],
      "stateMutability": "view",
      "type": "function"
    },
    {
      "inputs": [
        {
          "internalType": "uint256",
          "name": "",
          "type": "uint256"
        }
      ],
      "name": "cycleToKing",
      "outputs": [
        {
          "internalType": "address",
          "name": "",
          "type": "address"
        }
      ],
      "stateMutability": "view",
      "type": "function"
    },
    {
      "inputs": [
        {
          "internalType": "string",
          "name": "message",
          "type": "string"
        }
      ],
      "name": "enter",
      "outputs": [],
      "stateMutability": "nonpayable",
      "type": "function"
    },
    {
      "inputs": [],
      "name": "enter",
      "outputs": [],
      "stateMutability": "nonpayable",
      "type": "function"
    },
    {
      "inputs": [],
      "name": "enterAmount",
      "outputs": [
        {
          "internalType": "uint256",
          "name": "",
          "type": "uint256"
        }
      ],
      "stateMutability": "view",
      "type": "function"
    },
    {
      "inputs": [],
      "name": "getEnterAmount",
      "outputs": [
        {
          "internalType": "uint256",
          "name": "",
          "type": "uint256"
        }
      ],
      "stateMutability": "view",
      "type": "function"
    },
    {
      "inputs": [],
      "name": "isTimeUp",
      "outputs": [
        {
          "internalType": "bool",
          "name": "",
          "type": "bool"
        }
      ],
      "stateMutability": "view",
      "type": "function"
    },
    {
      "inputs": [
        {
          "internalType": "address",
          "name": "",
          "type": "address"
        }
      ],
      "name": "oldKings",
      "outputs": [
        {
          "internalType": "string",
          "name": "message",
          "type": "string"
        },
        {
          "internalType": "uint256",
          "name": "cycle",
          "type": "uint256"
        },
        {
          "internalType": "bool",
          "name": "messageSent",
          "type": "bool"
        }
      ],
      "stateMutability": "view",
      "type": "function"
    },
    {
      "inputs": [],
      "name": "owner",
      "outputs": [
        {
          "internalType": "address",
          "name": "",
          "type": "address"
        }
      ],
      "stateMutability": "view",
      "type": "function"
    },
    {
      "inputs": [],
      "name": "period",
      "outputs": [
        {
          "internalType": "uint256",
          "name": "",
          "type": "uint256"
        }
      ],
      "stateMutability": "view",
      "type": "function"
    },
    {
      "inputs": [],
      "name": "reward",
      "outputs": [
        {
          "internalType": "uint256",
          "name": "",
          "type": "uint256"
        }
      ],
      "stateMutability": "view",
      "type": "function"
    },
    {
      "inputs": [
        {
          "internalType": "uint256",
          "name": "amount",
          "type": "uint256"
        }
      ],
      "name": "setEnterAmount",
      "outputs": [],
      "stateMutability": "nonpayable",
      "type": "function"
    },
    {
      "inputs": [
        {
          "internalType": "address",
          "name": "_owner",
          "type": "address"
        }
      ],
      "name": "setOwner",
      "outputs": [],
      "stateMutability": "nonpayable",
      "type": "function"
    },
    {
      "inputs": [],
      "name": "startTs",
      "outputs": [
        {
          "internalType": "uint256",
          "name": "",
          "type": "uint256"
        }
      ],
      "stateMutability": "view",
      "type": "function"
    },
    {
      "inputs": [],
      "name": "step",
      "outputs": [
        {
          "internalType": "uint256",
          "name": "",
          "type": "uint256"
        }
      ],
      "stateMutability": "view",
      "type": "function"
    },
    {
      "inputs": [
        {
          "internalType": "string",
          "name": "message",
          "type": "string"
        }
      ],
      "name": "writeMessage",
      "outputs": [],
      "stateMutability": "nonpayable",
      "type": "function"
    }
  ],
  "bytecode": {
    "object": "0x60a060405268056bc75e2d63100000600055600060025534801561002257600080fd5b5060405161167338038061167383398101604081905261004191610064565b600380546001600160a01b031916331790556001600160a01b0316608052610094565b60006020828403121561007657600080fd5b81516001600160a01b038116811461008d57600080fd5b9392505050565b6080516115a86100cb6000396000818161029901528181610554015281816105fc01528181610aa30152610b4b01526115a86000f3fe608060405234801561001057600080fd5b50600436106101365760003560e01c806365c6a23e116100b2578063b588bfad11610081578063e25fe17511610066578063e25fe175146102bb578063e97dcb62146102c3578063ef78d4fd146102cb57600080fd5b8063b588bfad14610281578063e1a61a0c1461029457600080fd5b806365c6a23e146102235780638da5cb5b146102365780639d4ff8ad14610256578063aabe2fe31461026957600080fd5b806325677e4f1161010957806347f32ede116100ee57806347f32ede1461019d5780635faeeba6146101f85780636190c9d51461021a57600080fd5b806325677e4f1461018b57806330cfa1541461019457600080fd5b80630107447c1461013b57806313af4035146101565780631a0659af1461016b578063228cb73314610183575b600080fd5b6101436102d4565b6040519081526020015b60405180910390f35b610169610164366004611133565b610300565b005b6001546040516103849091014211815260200161014d565b610143600181565b61014360015481565b61014360005481565b6101d36101ab366004611170565b60096020526000908152604090205473ffffffffffffffffffffffffffffffffffffffff1681565b60405173ffffffffffffffffffffffffffffffffffffffff909116815260200161014d565b61020b610206366004611133565b6103c0565b60405161014d939291906111f4565b61014360025481565b610169610231366004611170565b61046e565b6003546101d39073ffffffffffffffffffffffffffffffffffffffff1681565b61016961026436600461121e565b6104c4565b6102716107be565b60405161014d9493929190611290565b61016961028f36600461121e565b610879565b6101d37f000000000000000000000000000000000000000000000000000000000000000081565b610143600381565b610169610a13565b61014361038481565b60006102e560015461038401421190565b156102f1575060005490565b50600554600a60038202040190565b60035473ffffffffffffffffffffffffffffffffffffffff163314610351576040517f82b4290000000000000000000000000000000000000000000000000000000000815260040160405180910390fd5b600380547fffffffffffffffffffffffff00000000000000000000000000000000000000001673ffffffffffffffffffffffffffffffffffffffff83169081179091556040517f957090e72c0a1b3ebf83c682eb8c1f88c2a18cd0578b91a819efb28859f0f3a390600090a250565b6008602052600090815260409020805481906103db906112d8565b80601f0160208091040260200160405190810160405280929190818152602001828054610407906112d8565b80156104545780601f1061042957610100808354040283529160200191610454565b820191906000526020600020905b81548152906001019060200180831161043757829003601f168201915b50505050600183015460029093015491929160ff16905083565b60035473ffffffffffffffffffffffffffffffffffffffff1633146104bf576040517f82b4290000000000000000000000000000000000000000000000000000000000815260040160405180910390fd5b600055565b600154610384014211156104da576104da610cb7565b60006104e46102d4565b6005549091508190156105c757600554600480546040517f23b872dd000000000000000000000000000000000000000000000000000000008152339281019290925273ffffffffffffffffffffffffffffffffffffffff9081166024830152600a830490920160448201819052917f000000000000000000000000000000000000000000000000000000000000000016906323b872dd906064016020604051808303816000875af115801561059d573d6000803e3d6000fd5b505050506040513d601f19601f820116820180604052508101906105c1919061132c565b50820390505b6040517f9dc29fac000000000000000000000000000000000000000000000000000000008152336004820152602481018290527f000000000000000000000000000000000000000000000000000000000000000073ffffffffffffffffffffffffffffffffffffffff1690639dc29fac90604401600060405180830381600087803b15801561065557600080fd5b505af1158015610669573d6000803e3d6000fd5b5050505060405180608001604052803373ffffffffffffffffffffffffffffffffffffffff16815260200183815260200185858080601f01602080910402602001604051908101604052809392919081815260200183838082843760009201919091525050509082525060016020918201528151600480547fffffffffffffffffffffffff00000000000000000000000000000000000000001673ffffffffffffffffffffffffffffffffffffffff909216919091178155828201516005556040830151805191926107419260069290910190610f8d565b5060609190910151600390910180547fffffffffffffffffffffffffffffffffffffffffffffffffffffffffffffff0016911515919091179055426001556040517f6f8495ef896b4e64181c50e4c5f191bb381ec890bd8a6a86d78709a787e07ade906107b090600490611474565b60405180910390a150505050565b600480546005546006805473ffffffffffffffffffffffffffffffffffffffff9093169391926107ed906112d8565b80601f0160208091040260200160405190810160405280929190818152602001828054610819906112d8565b80156108665780601f1061083b57610100808354040283529160200191610866565b820191906000526020600020905b81548152906001019060200180831161084957829003601f168201915b5050506003909301549192505060ff1684565b60045473ffffffffffffffffffffffffffffffffffffffff16331480156108a3575060075460ff16155b15610920576108b460068383611011565b50600780547fffffffffffffffffffffffffffffffffffffffffffffffffffffffffffffff001660011790556040517fc935582a97be94df6e74e457da284a434f2738727707573e777152b28af2e4989061091490339085908590611487565b60405180910390a15050565b336000908152600860205260409020600101541580159061095457503360009081526008602052604090206002015460ff16155b156109e157336000908152600860205260409020610973908383611011565b50336000818152600860205260409081902060020180547fffffffffffffffffffffffffffffffffffffffffffffffffffffffffffffff00166001179055517f12e16bc5a1d389f26a35079a895da4cd3c3cb495787728dffd96bb97cd5e46f2916109149185908590611487565b6040517f0a4f793200000000000000000000000000000000000000000000000000000000815260040160405180910390fd5b60015461038401421115610a2957610a29610cb7565b6000610a336102d4565b600554909150819015610b1657600554600480546040517f23b872dd000000000000000000000000000000000000000000000000000000008152339281019290925273ffffffffffffffffffffffffffffffffffffffff9081166024830152600a830490920160448201819052917f000000000000000000000000000000000000000000000000000000000000000016906323b872dd906064016020604051808303816000875af1158015610aec573d6000803e3d6000fd5b505050506040513d601f19601f82011682018060405250810190610b10919061132c565b50820390505b6040517f9dc29fac000000000000000000000000000000000000000000000000000000008152336004820152602481018290527f000000000000000000000000000000000000000000000000000000000000000073ffffffffffffffffffffffffffffffffffffffff1690639dc29fac90604401600060405180830381600087803b158015610ba457600080fd5b505af1158015610bb8573d6000803e3d6000fd5b50506040805160808101825233815260208082018781528351918201808552600080845294840183905260608401949094528251600480547fffffffffffffffffffffffff00000000000000000000000000000000000000001673ffffffffffffffffffffffffffffffffffffffff909216919091178155905160055590519194509250610c4891600691610f8d565b5060609190910151600390910180547fffffffffffffffffffffffffffffffffffffffffffffffffffffffffffffff0016911515919091179055426001556040517f6f8495ef896b4e64181c50e4c5f191bb381ec890bd8a6a86d78709a787e07ade9061091490600490611474565b600254610cd55760028054906000610cce836114f1565b9190505550565b6002546004805473ffffffffffffffffffffffffffffffffffffffff90811660009081526008602090815260408083206001018690559354948252600990529190912080547fffffffffffffffffffffffff0000000000000000000000000000000000000000169290911691909117905560075460ff1615610de95760045473ffffffffffffffffffffffffffffffffffffffff16600090815260086020526040902060068054610d85906112d8565b610d909291906110a3565b5060045473ffffffffffffffffffffffffffffffffffffffff16600090815260086020526040902060020180547fffffffffffffffffffffffffffffffffffffffffffffffffffffffffffffff00166001179055610e7b565b604080516020808201808452600080845260045473ffffffffffffffffffffffffffffffffffffffff16815260089092529290209051610e299290610f8d565b5060045473ffffffffffffffffffffffffffffffffffffffff16600090815260086020526040902060020180547fffffffffffffffffffffffffffffffffffffffffffffffffffffffffffffff001690555b7fdd179b2bcb897d367565d824fa64be6cd1002c92048e0c21331883861a6c502b6002546004604051610eaf929190611551565b60405180910390a16040805160808101825260008082526020808301828152845191820180865283835294840182905260608401929092528251600480547fffffffffffffffffffffffff00000000000000000000000000000000000000001673ffffffffffffffffffffffffffffffffffffffff90921691909117815591516005555191929091610f4391600691610f8d565b5060609190910151600390910180547fffffffffffffffffffffffffffffffffffffffffffffffffffffffffffffff001691151591909117905560028054906000610cce836114f1565b828054610f99906112d8565b90600052602060002090601f016020900481019282610fbb5760008555611001565b82601f10610fd457805160ff1916838001178555611001565b82800160010185558215611001579182015b82811115611001578251825591602001919060010190610fe6565b5061100d92915061111e565b5090565b82805461101d906112d8565b90600052602060002090601f01602090048101928261103f5760008555611001565b82601f10611076578280017fffffffffffffffffffffffffffffffffffffffffffffffffffffffffffffff00823516178555611001565b82800160010185558215611001579182015b82811115611001578235825591602001919060010190611088565b8280546110af906112d8565b90600052602060002090601f0160209004810192826110d15760008555611001565b82601f106110e25780548555611001565b8280016001018555821561100157600052602060002091601f016020900482015b82811115611001578254825591600101919060010190611103565b5b8082111561100d576000815560010161111f565b60006020828403121561114557600080fd5b813573ffffffffffffffffffffffffffffffffffffffff8116811461116957600080fd5b9392505050565b60006020828403121561118257600080fd5b5035919050565b6000815180845260005b818110156111af57602081850181015186830182015201611193565b818111156111c1576000602083870101525b50601f017fffffffffffffffffffffffffffffffffffffffffffffffffffffffffffffffe0169290920160200192915050565b6060815260006112076060830186611189565b602083019490945250901515604090910152919050565b6000806020838503121561123157600080fd5b823567ffffffffffffffff8082111561124957600080fd5b818501915085601f83011261125d57600080fd5b81358181111561126c57600080fd5b86602082850101111561127e57600080fd5b60209290920196919550909350505050565b73ffffffffffffffffffffffffffffffffffffffff851681528360208201526080604082015260006112c56080830185611189565b9050821515606083015295945050505050565b600181811c908216806112ec57607f821691505b60208210811415611326577f4e487b7100000000000000000000000000000000000000000000000000000000600052602260045260246000fd5b50919050565b60006020828403121561133e57600080fd5b8151801515811461116957600080fd5b73ffffffffffffffffffffffffffffffffffffffff815416825260006001808301546020818187015260028501915060806040870152600082548181861c90508582168061139d57607f821691505b8482108114156113d4577f4e487b710000000000000000000000000000000000000000000000000000000084526022600452602484fd5b60808a0182905260a08a018180156113f357600181146114225761144d565b7fffffffffffffffffffffffffffffffffffffffffffffffffffffffffffffff0085168252868201955061144d565b60008881526020902060005b8581101561144757815484820152908a0190880161142e565b83019650505b5050505050611460600387015460ff1690565b801515606089015293509695505050505050565b602081526000611169602083018461134e565b73ffffffffffffffffffffffffffffffffffffffff8416815260406020820152816040820152818360608301376000818301606090810191909152601f9092017fffffffffffffffffffffffffffffffffffffffffffffffffffffffffffffffe016010192915050565b60007fffffffffffffffffffffffffffffffffffffffffffffffffffffffffffffffff82141561154a577f4e487b7100000000000000000000000000000000000000000000000000000000600052601160045260246000fd5b5060010190565b82815260406020820152600061156a604083018461134e565b94935050505056fea2646970667358221220629ebaa00ba96c707173674ba2d8f077339a3996790d9e2c1c566015a9b0e09964736f6c634300080c0033",
    "linkReferences": {}
  },
  "methodIdentifiers": {
    "FLY()": "e1a61a0c",
    "currentWinner()": "aabe2fe3",
    "cycle()": "6190c9d5",
    "cycleToKing(uint256)": "47f32ede",
    "enter()": "e97dcb62",
    "enter(string)": "9d4ff8ad",
    "enterAmount()": "30cfa154",
    "getEnterAmount()": "0107447c",
    "isTimeUp()": "1a0659af",
    "oldKings(address)": "5faeeba6",
    "owner()": "8da5cb5b",
    "period()": "ef78d4fd",
    "reward()": "228cb733",
    "setEnterAmount(uint256)": "65c6a23e",
    "setOwner(address)": "13af4035",
    "startTs()": "25677e4f",
    "step()": "e25fe175",
    "writeMessage(string)": "b588bfad"
  },
  "id": 9
}