{
  "abi": [
    {
      "inputs": [
        {
          "internalType": "address",
          "name": "fly",
          "type": "address"
        }
      ],
      "stateMutability": "nonpayable",
      "type": "constructor"
    },
    {
      "inputs": [],
      "name": "NotEligableToWrite",
      "type": "error"
    },
    {
      "inputs": [],
      "name": "Unauthorized",
      "type": "error"
    },
    {
      "anonymous": false,
      "inputs": [
        {
          "indexed": false,
          "internalType": "uint256",
          "name": "cycle",
          "type": "uint256"
        },
        {
          "components": [
            {
              "internalType": "address",
              "name": "adr",
              "type": "address"
            },
            {
              "internalType": "uint256",
              "name": "flies",
              "type": "uint256"
            },
            {
              "internalType": "string",
              "name": "message",
              "type": "string"
            },
            {
              "internalType": "bool",
              "name": "messageSent",
              "type": "bool"
            }
          ],
          "indexed": false,
          "internalType": "struct KOTH.Winner",
          "name": "winner",
          "type": "tuple"
        }
      ],
      "name": "NewKing",
      "type": "event"
    },
    {
      "anonymous": false,
      "inputs": [
        {
          "indexed": true,
          "internalType": "address",
          "name": "owner",
          "type": "address"
        }
      ],
      "name": "UpdatedOwner",
      "type": "event"
    },
    {
      "anonymous": false,
      "inputs": [
        {
          "components": [
            {
              "internalType": "address",
              "name": "adr",
              "type": "address"
            },
            {
              "internalType": "uint256",
              "name": "flies",
              "type": "uint256"
            },
            {
              "internalType": "string",
              "name": "message",
              "type": "string"
            },
            {
              "internalType": "bool",
              "name": "messageSent",
              "type": "bool"
            }
          ],
          "indexed": false,
          "internalType": "struct KOTH.Winner",
          "name": "winner",
          "type": "tuple"
        }
      ],
      "name": "WinnerChanged",
      "type": "event"
    },
    {
      "inputs": [],
      "name": "FLY",
      "outputs": [
        {
          "internalType": "address",
          "name": "",
          "type": "address"
        }
      ],
      "stateMutability": "view",
      "type": "function"
    },
    {
      "inputs": [],
      "name": "currentWinner",
      "outputs": [
        {
          "internalType": "address",
          "name": "adr",
          "type": "address"
        },
        {
          "internalType": "uint256",
          "name": "flies",
          "type": "uint256"
        },
        {
          "internalType": "string",
          "name": "message",
          "type": "string"
        },
        {
          "internalType": "bool",
          "name": "messageSent",
          "type": "bool"
        }
      ],
      "stateMutability": "view",
      "type": "function"
    },
    {
      "inputs": [],
      "name": "cycle",
      "outputs": [
        {
          "internalType": "uint256",
          "name": "",
          "type": "uint256"
        }
      ],
      "stateMutability": "view",
      "type": "function"
    },
    {
      "inputs": [
        {
          "internalType": "uint256",
          "name": "",
          "type": "uint256"
        }
      ],
      "name": "cycleToKing",
      "outputs": [
        {
          "internalType": "address",
          "name": "",
          "type": "address"
        }
      ],
      "stateMutability": "view",
      "type": "function"
    },
    {
      "inputs": [
        {
          "internalType": "string",
          "name": "message",
          "type": "string"
        }
      ],
      "name": "enter",
      "outputs": [],
      "stateMutability": "nonpayable",
      "type": "function"
    },
    {
      "inputs": [],
      "name": "enterAmount",
      "outputs": [
        {
          "internalType": "uint256",
          "name": "",
          "type": "uint256"
        }
      ],
      "stateMutability": "view",
      "type": "function"
    },
    {
      "inputs": [],
      "name": "getEnterAmount",
      "outputs": [
        {
          "internalType": "uint256",
          "name": "",
          "type": "uint256"
        }
      ],
      "stateMutability": "view",
      "type": "function"
    },
    {
      "inputs": [],
      "name": "isTimeUp",
      "outputs": [
        {
          "internalType": "bool",
          "name": "",
          "type": "bool"
        }
      ],
      "stateMutability": "view",
      "type": "function"
    },
    {
      "inputs": [
        {
          "internalType": "address",
          "name": "",
          "type": "address"
        }
      ],
      "name": "oldKings",
      "outputs": [
        {
          "internalType": "string",
          "name": "message",
          "type": "string"
        },
        {
          "internalType": "uint256",
          "name": "cycle",
          "type": "uint256"
        },
        {
          "internalType": "bool",
          "name": "messageSent",
          "type": "bool"
        }
      ],
      "stateMutability": "view",
      "type": "function"
    },
    {
      "inputs": [],
      "name": "owner",
      "outputs": [
        {
          "internalType": "address",
          "name": "",
          "type": "address"
        }
      ],
      "stateMutability": "view",
      "type": "function"
    },
    {
      "inputs": [],
      "name": "period",
      "outputs": [
        {
          "internalType": "uint256",
          "name": "",
          "type": "uint256"
        }
      ],
      "stateMutability": "view",
      "type": "function"
    },
    {
      "inputs": [],
      "name": "reward",
      "outputs": [
        {
          "internalType": "uint256",
          "name": "",
          "type": "uint256"
        }
      ],
      "stateMutability": "view",
      "type": "function"
    },
    {
      "inputs": [
        {
          "internalType": "uint256",
          "name": "amount",
          "type": "uint256"
        }
      ],
      "name": "setEnterAmount",
      "outputs": [],
      "stateMutability": "nonpayable",
      "type": "function"
    },
    {
      "inputs": [
        {
          "internalType": "address",
          "name": "_owner",
          "type": "address"
        }
      ],
      "name": "setOwner",
      "outputs": [],
      "stateMutability": "nonpayable",
      "type": "function"
    },
    {
      "inputs": [],
      "name": "startTs",
      "outputs": [
        {
          "internalType": "uint256",
          "name": "",
          "type": "uint256"
        }
      ],
      "stateMutability": "view",
      "type": "function"
    },
    {
      "inputs": [],
      "name": "step",
      "outputs": [
        {
          "internalType": "uint256",
          "name": "",
          "type": "uint256"
        }
      ],
      "stateMutability": "view",
      "type": "function"
    },
    {
      "inputs": [
        {
          "internalType": "string",
          "name": "message",
          "type": "string"
        }
      ],
      "name": "writeMessage",
      "outputs": [],
      "stateMutability": "nonpayable",
      "type": "function"
    }
  ],
  "bytecode": {
    "object": "0x60a060405268056bc75e2d63100000600055600160025534801561002257600080fd5b5060405161112b38038061112b83398101604081905261004191610064565b600380546001600160a01b031916331790556001600160a01b0316608052610094565b60006020828403121561007657600080fd5b81516001600160a01b038116811461008d57600080fd5b9392505050565b60805161106e6100bd6000396000818161027e0152818161053101526105d9015261106e6000f3fe608060405234801561001057600080fd5b506004361061011b5760003560e01c80636190c9d5116100b2578063aabe2fe311610081578063e1a61a0c11610066578063e1a61a0c14610279578063e25fe175146102a0578063ef78d4fd146102a857600080fd5b8063aabe2fe31461024e578063b588bfad1461026657600080fd5b80636190c9d5146101ff57806365c6a23e146102085780638da5cb5b1461021b5780639d4ff8ad1461023b57600080fd5b806325677e4f116100ee57806325677e4f1461017057806330cfa1541461017957806347f32ede146101825780635faeeba6146101dd57600080fd5b80630107447c1461012057806313af40351461013b5780631a0659af14610150578063228cb73314610168575b600080fd5b6101286102b1565b6040519081526020015b60405180910390f35b61014e610149366004610c63565b6102dd565b005b60015460405161038490910142118152602001610132565b610128600181565b61012860015481565b61012860005481565b6101b8610190366004610ca0565b60096020526000908152604090205473ffffffffffffffffffffffffffffffffffffffff1681565b60405173ffffffffffffffffffffffffffffffffffffffff9091168152602001610132565b6101f06101eb366004610c63565b61039d565b60405161013293929190610d24565b61012860025481565b61014e610216366004610ca0565b61044b565b6003546101b89073ffffffffffffffffffffffffffffffffffffffff1681565b61014e610249366004610d4e565b6104a1565b6102566106fb565b6040516101329493929190610dc0565b61014e610274366004610d4e565b6107b6565b6101b87f000000000000000000000000000000000000000000000000000000000000000081565b610128600381565b61012861038481565b60006102c260015461038401421190565b156102ce575060005490565b50600554600a60038202040190565b60035473ffffffffffffffffffffffffffffffffffffffff16331461032e576040517f82b4290000000000000000000000000000000000000000000000000000000000815260040160405180910390fd5b600380547fffffffffffffffffffffffff00000000000000000000000000000000000000001673ffffffffffffffffffffffffffffffffffffffff83169081179091556040517f957090e72c0a1b3ebf83c682eb8c1f88c2a18cd0578b91a819efb28859f0f3a390600090a250565b6008602052600090815260409020805481906103b890610e08565b80601f01602080910402602001604051908101604052809291908181526020018280546103e490610e08565b80156104315780601f1061040657610100808354040283529160200191610431565b820191906000526020600020905b81548152906001019060200180831161041457829003601f168201915b50505050600183015460029093015491929160ff16905083565b60035473ffffffffffffffffffffffffffffffffffffffff16331461049c576040517f82b4290000000000000000000000000000000000000000000000000000000000815260040160405180910390fd5b600055565b600154610384014211156104b7576104b76108e6565b60006104c16102b1565b6005549091508190156105a457600554600480546040517f23b872dd000000000000000000000000000000000000000000000000000000008152339281019290925273ffffffffffffffffffffffffffffffffffffffff9081166024830152600a830490920160448201819052917f000000000000000000000000000000000000000000000000000000000000000016906323b872dd906064016020604051808303816000875af115801561057a573d6000803e3d6000fd5b505050506040513d601f19601f8201168201806040525081019061059e9190610e5c565b50820390505b6040517f9dc29fac000000000000000000000000000000000000000000000000000000008152336004820152602481018290527f000000000000000000000000000000000000000000000000000000000000000073ffffffffffffffffffffffffffffffffffffffff1690639dc29fac90604401600060405180830381600087803b15801561063257600080fd5b505af1158015610646573d6000803e3d6000fd5b5050600480547fffffffffffffffffffffffff000000000000000000000000000000000000000016331790555050600582905582156106b85761068b60068585610abd565b50600780547fffffffffffffffffffffffffffffffffffffffffffffffffffffffffffffff001660011790555b426001556040517f6f8495ef896b4e64181c50e4c5f191bb381ec890bd8a6a86d78709a787e07ade906106ed90600490610fa4565b60405180910390a150505050565b600480546005546006805473ffffffffffffffffffffffffffffffffffffffff90931693919261072a90610e08565b80601f016020809104026020016040519081016040528092919081815260200182805461075690610e08565b80156107a35780601f10610778576101008083540402835291602001916107a3565b820191906000526020600020905b81548152906001019060200180831161078657829003601f168201915b5050506003909301549192505060ff1684565b60045473ffffffffffffffffffffffffffffffffffffffff16331480156107e0575060075460ff16155b15610821576107f160068383610abd565b50600780547fffffffffffffffffffffffffffffffffffffffffffffffffffffffffffffff001660011790555050565b336000908152600860205260409020600101541580159061085557503360009081526008602052604090206002015460ff16155b156108b457336000908152600860205260409020610874908383610abd565b5033600090815260086020526040902060020180547fffffffffffffffffffffffffffffffffffffffffffffffffffffffffffffff001660011790555050565b6040517f0a4f793200000000000000000000000000000000000000000000000000000000815260040160405180910390fd5b6002546004805473ffffffffffffffffffffffffffffffffffffffff90811660009081526008602090815260408083206001018690559354948252600990529190912080547fffffffffffffffffffffffff0000000000000000000000000000000000000000169290911691909117905560075460ff16156109f65760045473ffffffffffffffffffffffffffffffffffffffff1660009081526008602052604090206006805461099690610e08565b6109a1929190610b5f565b5060045473ffffffffffffffffffffffffffffffffffffffff16600090815260086020526040902060020180547fffffffffffffffffffffffffffffffffffffffffffffffffffffffffffffff001660011790555b600480547fffffffffffffffffffffffff000000000000000000000000000000000000000016905560006005819055604080516020810191829052829052610a419160069190610bda565b50600780547fffffffffffffffffffffffffffffffffffffffffffffffffffffffffffffff001690556002546040517fdd179b2bcb897d367565d824fa64be6cd1002c92048e0c21331883861a6c502b91610a9e91600490610fb7565b60405180910390a160028054906000610ab683610fd8565b9190505550565b828054610ac990610e08565b90600052602060002090601f016020900481019282610aeb5760008555610b4f565b82601f10610b22578280017fffffffffffffffffffffffffffffffffffffffffffffffffffffffffffffff00823516178555610b4f565b82800160010185558215610b4f579182015b82811115610b4f578235825591602001919060010190610b34565b50610b5b929150610c4e565b5090565b828054610b6b90610e08565b90600052602060002090601f016020900481019282610b8d5760008555610b4f565b82601f10610b9e5780548555610b4f565b82800160010185558215610b4f57600052602060002091601f016020900482015b82811115610b4f578254825591600101919060010190610bbf565b828054610be690610e08565b90600052602060002090601f016020900481019282610c085760008555610b4f565b82601f10610c2157805160ff1916838001178555610b4f565b82800160010185558215610b4f579182015b82811115610b4f578251825591602001919060010190610c33565b5b80821115610b5b5760008155600101610c4f565b600060208284031215610c7557600080fd5b813573ffffffffffffffffffffffffffffffffffffffff81168114610c9957600080fd5b9392505050565b600060208284031215610cb257600080fd5b5035919050565b6000815180845260005b81811015610cdf57602081850181015186830182015201610cc3565b81811115610cf1576000602083870101525b50601f017fffffffffffffffffffffffffffffffffffffffffffffffffffffffffffffffe0169290920160200192915050565b606081526000610d376060830186610cb9565b602083019490945250901515604090910152919050565b60008060208385031215610d6157600080fd5b823567ffffffffffffffff80821115610d7957600080fd5b818501915085601f830112610d8d57600080fd5b813581811115610d9c57600080fd5b866020828501011115610dae57600080fd5b60209290920196919550909350505050565b73ffffffffffffffffffffffffffffffffffffffff85168152836020820152608060408201526000610df56080830185610cb9565b9050821515606083015295945050505050565b600181811c90821680610e1c57607f821691505b60208210811415610e56577f4e487b7100000000000000000000000000000000000000000000000000000000600052602260045260246000fd5b50919050565b600060208284031215610e6e57600080fd5b81518015158114610c9957600080fd5b73ffffffffffffffffffffffffffffffffffffffff815416825260006001808301546020818187015260028501915060806040870152600082548181861c905085821680610ecd57607f821691505b848210811415610f04577f4e487b710000000000000000000000000000000000000000000000000000000084526022600452602484fd5b60808a0182905260a08a01818015610f235760018114610f5257610f7d565b7fffffffffffffffffffffffffffffffffffffffffffffffffffffffffffffff00851682528682019550610f7d565b60008881526020902060005b85811015610f7757815484820152908a01908801610f5e565b83019650505b5050505050610f90600387015460ff1690565b801515606089015293509695505050505050565b602081526000610c996020830184610e7e565b828152604060208201526000610fd06040830184610e7e565b949350505050565b60007fffffffffffffffffffffffffffffffffffffffffffffffffffffffffffffffff821415611031577f4e487b7100000000000000000000000000000000000000000000000000000000600052601160045260246000fd5b506001019056fea2646970667358221220ddb7c4e4d65226d3cbc7c468269c30baa5fbdec7afc0610521c87947d1dc4c9264736f6c634300080c0033",
    "linkReferences": {}
  },
  "methodIdentifiers": {
    "FLY()": "e1a61a0c",
    "currentWinner()": "aabe2fe3",
    "cycle()": "6190c9d5",
    "cycleToKing(uint256)": "47f32ede",
    "enter(string)": "9d4ff8ad",
    "enterAmount()": "30cfa154",
    "getEnterAmount()": "0107447c",
    "isTimeUp()": "1a0659af",
    "oldKings(address)": "5faeeba6",
    "owner()": "8da5cb5b",
    "period()": "ef78d4fd",
    "reward()": "228cb733",
    "setEnterAmount(uint256)": "65c6a23e",
    "setOwner(address)": "13af4035",
    "startTs()": "25677e4f",
    "step()": "e25fe175",
    "writeMessage(string)": "b588bfad"
  },
  "id": 7
}